{
  "contractName": "Betting",
  "abi": [
    {
      "inputs": [],
      "payable": true,
      "stateMutability": "payable",
      "type": "constructor"
    },
    {
      "anonymous": false,
      "inputs": [
        {
          "indexed": false,
          "internalType": "address",
          "name": "playerAddress",
          "type": "address"
        },
        {
          "indexed": false,
          "internalType": "uint256",
          "name": "playerBalance",
          "type": "uint256"
        },
        {
          "indexed": false,
          "internalType": "bytes32",
          "name": "queryId",
          "type": "bytes32"
        },
        {
          "indexed": false,
          "internalType": "uint256",
          "name": "random",
          "type": "uint256"
        },
        {
          "indexed": false,
          "internalType": "uint256",
          "name": "contractBalance",
          "type": "uint256"
        }
      ],
      "name": "LogGameState",
      "type": "event"
    },
    {
      "anonymous": false,
      "inputs": [
        {
          "indexed": false,
          "internalType": "bytes32",
          "name": "requestId",
          "type": "bytes32"
        },
        {
          "indexed": false,
          "internalType": "uint256",
          "name": "randomNumber",
          "type": "uint256"
        }
      ],
      "name": "LogGeneratedRandomNumber",
      "type": "event"
    },
    {
      "anonymous": false,
      "inputs": [
        {
          "indexed": false,
          "internalType": "address",
          "name": "playerAddress",
          "type": "address"
        },
        {
          "indexed": false,
          "internalType": "uint256",
          "name": "bet",
          "type": "uint256"
        },
        {
          "indexed": false,
          "internalType": "bytes32",
          "name": "queryId",
          "type": "bytes32"
        }
      ],
      "name": "LogPlay",
      "type": "event"
    },
    {
      "anonymous": false,
      "inputs": [
        {
          "indexed": false,
          "internalType": "address",
          "name": "playerAddress",
          "type": "address"
        },
        {
          "indexed": false,
          "internalType": "bool",
          "name": "win",
          "type": "bool"
        },
        {
          "indexed": false,
          "internalType": "uint256",
          "name": "winAmount",
          "type": "uint256"
        }
      ],
      "name": "LogPlayEnd",
      "type": "event"
    },
    {
      "anonymous": false,
      "inputs": [
        {
          "indexed": false,
          "internalType": "address",
          "name": "playerAddress",
          "type": "address"
        },
        {
          "indexed": false,
          "internalType": "bytes32",
          "name": "queryId",
          "type": "bytes32"
        }
      ],
      "name": "LogRandomRequest",
      "type": "event"
    },
    {
      "anonymous": false,
      "inputs": [
        {
          "indexed": false,
          "internalType": "address",
          "name": "playerAddress",
          "type": "address"
        },
        {
          "indexed": false,
          "internalType": "bytes32",
          "name": "queryId",
          "type": "bytes32"
        },
        {
          "indexed": false,
          "internalType": "uint256",
          "name": "random",
          "type": "uint256"
        }
      ],
      "name": "LogRandomRequestRecieved",
      "type": "event"
    },
    {
      "constant": true,
      "inputs": [],
      "name": "contractBalance",
      "outputs": [
        {
          "internalType": "uint256",
          "name": "",
          "type": "uint256"
        }
      ],
      "payable": false,
      "stateMutability": "view",
      "type": "function"
    },
    {
      "constant": true,
      "inputs": [],
      "name": "latestNumber",
      "outputs": [
        {
          "internalType": "uint256",
          "name": "",
          "type": "uint256"
        }
      ],
      "payable": false,
      "stateMutability": "view",
      "type": "function"
    },
    {
      "constant": false,
      "inputs": [],
      "name": "play",
      "outputs": [],
      "payable": true,
      "stateMutability": "payable",
      "type": "function"
    },
    {
      "constant": false,
      "inputs": [],
      "name": "getRandomNumber",
      "outputs": [
        {
          "internalType": "bytes32",
          "name": "queryId",
          "type": "bytes32"
        }
      ],
      "payable": true,
      "stateMutability": "payable",
      "type": "function"
    },
    {
      "constant": false,
      "inputs": [
        {
          "internalType": "bytes32",
          "name": "_myid",
          "type": "bytes32"
        },
        {
          "internalType": "string",
          "name": "_result",
          "type": "string"
        }
      ],
      "name": "__callback",
      "outputs": [],
      "payable": false,
      "stateMutability": "nonpayable",
      "type": "function"
    },
    {
      "constant": false,
      "inputs": [
        {
          "internalType": "bytes32",
          "name": "_queryId",
          "type": "bytes32"
        },
        {
          "internalType": "string",
          "name": "_result",
          "type": "string"
        },
        {
          "internalType": "bytes",
          "name": "_proof",
          "type": "bytes"
        }
      ],
      "name": "__callback",
      "outputs": [],
      "payable": false,
      "stateMutability": "nonpayable",
      "type": "function"
    },
    {
      "constant": false,
      "inputs": [],
      "name": "withdrawPlayerBalance",
      "outputs": [],
      "payable": false,
      "stateMutability": "nonpayable",
      "type": "function"
    },
    {
      "constant": false,
      "inputs": [],
      "name": "withdrawContractBalance",
      "outputs": [],
      "payable": false,
      "stateMutability": "nonpayable",
      "type": "function"
    },
    {
      "constant": false,
      "inputs": [],
      "name": "deposit",
      "outputs": [],
      "payable": true,
      "stateMutability": "payable",
      "type": "function"
    },
    {
      "constant": true,
      "inputs": [],
      "name": "getPlayer",
      "outputs": [
        {
          "internalType": "address",
          "name": "playerAddress",
          "type": "address"
        },
        {
          "internalType": "uint256",
          "name": "balance",
          "type": "uint256"
        },
        {
          "internalType": "uint256",
          "name": "bet",
          "type": "uint256"
        },
        {
          "internalType": "bool",
          "name": "waiting",
          "type": "bool"
        },
        {
          "internalType": "bool",
          "name": "win",
          "type": "bool"
        },
        {
          "internalType": "bytes32",
          "name": "queryId",
          "type": "bytes32"
        },
        {
          "internalType": "uint256",
          "name": "random",
          "type": "uint256"
        }
      ],
      "payable": false,
      "stateMutability": "view",
      "type": "function"
    },
    {
      "constant": true,
      "inputs": [],
      "name": "getPlayerBalance",
      "outputs": [
        {
          "internalType": "uint256",
          "name": "",
          "type": "uint256"
        }
      ],
      "payable": false,
      "stateMutability": "view",
      "type": "function"
    },
    {
      "constant": true,
      "inputs": [],
      "name": "getContractBalance",
      "outputs": [
        {
          "internalType": "uint256",
          "name": "",
          "type": "uint256"
        }
      ],
      "payable": false,
      "stateMutability": "view",
      "type": "function"
    },
    {
      "constant": true,
      "inputs": [],
      "name": "getContractAddress",
      "outputs": [
        {
          "internalType": "address",
          "name": "",
          "type": "address"
        }
      ],
      "payable": false,
      "stateMutability": "view",
      "type": "function"
    },
    {
      "constant": true,
      "inputs": [],
      "name": "getSenderAddress",
      "outputs": [
        {
          "internalType": "address",
          "name": "",
          "type": "address"
        }
      ],
      "payable": false,
      "stateMutability": "view",
      "type": "function"
    }
  ],
  "bytecode": "0x608060405266b1a2bc2ec5000080341015610065576040517f08c379a000000000000000000000000000000000000000000000000000000000815260040180806020018281038252603c815260200180613907603c913960400191505060405180910390fd5b3460056000828254019250508190555033600760003373ffffffffffffffffffffffffffffffffffffffff1673ffffffffffffffffffffffffffffffffffffffff16815260200190815260200160002060000160006101000a81548173ffffffffffffffffffffffffffffffffffffffff021916908373ffffffffffffffffffffffffffffffffffffffff1602179055506000600760003373ffffffffffffffffffffffffffffffffffffffff1673ffffffffffffffffffffffffffffffffffffffff168152602001908152602001600020600101819055506000600760003373ffffffffffffffffffffffffffffffffffffffff1673ffffffffffffffffffffffffffffffffffffffff168152602001908152602001600020600201819055506000600760003373ffffffffffffffffffffffffffffffffffffffff1673ffffffffffffffffffffffffffffffffffffffff16815260200190815260200160002060030160006101000a81548160ff0219169083151502179055506000600760003373ffffffffffffffffffffffffffffffffffffffff1673ffffffffffffffffffffffffffffffffffffffff16815260200190815260200160002060030160016101000a81548160ff0219169083151502179055506000801b600760003373ffffffffffffffffffffffffffffffffffffffff1673ffffffffffffffffffffffffffffffffffffffff168152602001908152602001600020600401819055507f61704a25c5bb3df97128f366bd5d0ac72f4bbd4fdd69b66cf2ccb66cfb5933ad600760003373ffffffffffffffffffffffffffffffffffffffff1673ffffffffffffffffffffffffffffffffffffffff16815260200190815260200160002060000160009054906101000a900473ffffffffffffffffffffffffffffffffffffffff16600760003373ffffffffffffffffffffffffffffffffffffffff1673ffffffffffffffffffffffffffffffffffffffff16815260200190815260200160002060010154600080600554604051808673ffffffffffffffffffffffffffffffffffffffff1673ffffffffffffffffffffffffffffffffffffffff1681526020018581526020018460001b81526020018381526020018281526020019550505050505060405180910390a150613544806103c36000396000f3fe6080604052600436106100dd5760003560e01c80638b7afe2e1161007f578063d0e30db011610059578063d0e30db0146104f6578063d325101a14610500578063dbdff2c114610517578063dc34b0aa14610535576100dd565b80638b7afe2e146104aa57806393e84cd9146104d5578063bfab3db9146104df576100dd565b80633308f42d116100bb5780633308f42d1461023657806338bbfa50146102bf57806342948e18146104285780636f9fb98a1461047f576100dd565b80630b01517c146100e257806327dc297e1461010d57806332a2c5d0146101df575b600080fd5b3480156100ee57600080fd5b506100f7610560565b6040518082815260200191505060405180910390f35b34801561011957600080fd5b506101dd6004803603604081101561013057600080fd5b81019080803590602001909291908035906020019064010000000081111561015757600080fd5b82018360208201111561016957600080fd5b8035906020019184600183028401116401000000008311171561018b57600080fd5b91908080601f016020809104026020016040519081016040528093929190818152602001838380828437600081840152601f19601f8201169050808301925050505050505091929192905050506105aa565b005b3480156101eb57600080fd5b506101f46105ed565b604051808273ffffffffffffffffffffffffffffffffffffffff1673ffffffffffffffffffffffffffffffffffffffff16815260200191505060405180910390f35b34801561024257600080fd5b5061024b6105f5565b604051808873ffffffffffffffffffffffffffffffffffffffff1673ffffffffffffffffffffffffffffffffffffffff168152602001878152602001868152602001851515151581526020018415151515815260200183815260200182815260200197505050505050505060405180910390f35b3480156102cb57600080fd5b50610426600480360360608110156102e257600080fd5b81019080803590602001909291908035906020019064010000000081111561030957600080fd5b82018360208201111561031b57600080fd5b8035906020019184600183028401116401000000008311171561033d57600080fd5b91908080601f016020809104026020016040519081016040528093929190818152602001838380828437600081840152601f19601f820116905080830192505050505050509192919290803590602001906401000000008111156103a057600080fd5b8201836020820111156103b257600080fd5b803590602001918460018302840111640100000000831117156103d457600080fd5b91908080601f016020809104026020016040519081016040528093929190818152602001838380828437600081840152601f19601f82011690508083019250505050505050919291929050505061083c565b005b34801561043457600080fd5b5061043d610976565b604051808273ffffffffffffffffffffffffffffffffffffffff1673ffffffffffffffffffffffffffffffffffffffff16815260200191505060405180910390f35b34801561048b57600080fd5b5061049461097e565b6040518082815260200191505060405180910390f35b3480156104b657600080fd5b506104bf610988565b6040518082815260200191505060405180910390f35b6104dd61098e565b005b3480156104eb57600080fd5b506104f4610df7565b005b6104fe610e50565b005b34801561050c57600080fd5b50610515610ec4565b005b61051f611179565b6040518082815260200191505060405180910390f35b34801561054157600080fd5b5061054a61120c565b6040518082815260200191505060405180910390f35b6000600760003373ffffffffffffffffffffffffffffffffffffffff1673ffffffffffffffffffffffffffffffffffffffff16815260200190815260200160002060010154905090565b6105e9828260006040519080825280601f01601f1916602001820160405280156105e35781602001600182028038833980820191505090505b5061083c565b5050565b600030905090565b6000806000806000806000600760003373ffffffffffffffffffffffffffffffffffffffff1673ffffffffffffffffffffffffffffffffffffffff16815260200190815260200160002060000160009054906101000a900473ffffffffffffffffffffffffffffffffffffffff16600760003373ffffffffffffffffffffffffffffffffffffffff1673ffffffffffffffffffffffffffffffffffffffff16815260200190815260200160002060010154600760003373ffffffffffffffffffffffffffffffffffffffff1673ffffffffffffffffffffffffffffffffffffffff16815260200190815260200160002060020154600760003373ffffffffffffffffffffffffffffffffffffffff1673ffffffffffffffffffffffffffffffffffffffff16815260200190815260200160002060030160009054906101000a900460ff16600760003373ffffffffffffffffffffffffffffffffffffffff1673ffffffffffffffffffffffffffffffffffffffff16815260200190815260200160002060030160019054906101000a900460ff16600760003373ffffffffffffffffffffffffffffffffffffffff1673ffffffffffffffffffffffffffffffffffffffff1681526020019081526020016000206004015460086000600760003373ffffffffffffffffffffffffffffffffffffffff1673ffffffffffffffffffffffffffffffffffffffff16815260200190815260200160002060040154815260200190815260200160002060020154965096509650965096509650965090919293949596565b6000826040516020018082805190602001908083835b602083106108755780518252602082019150602081019050602083039250610852565b6001836020036101000a0380198251168184511680821785525050505050509050019150506040516020818303038152906040528051906020012060001c9050806006819055506108c584611212565b7f4bf80411d623abdaf893e3aaca74e51049bb40997d9f760160f86194a283e6576008600086815260200190815260200160002060010160009054906101000a900473ffffffffffffffffffffffffffffffffffffffff1685600654604051808473ffffffffffffffffffffffffffffffffffffffff1673ffffffffffffffffffffffffffffffffffffffff168152602001838152602001828152602001935050505060405180910390a150505050565b600033905090565b6000600554905090565b60055481565b662386f26fc10000803410156109ef576040517f08c379a00000000000000000000000000000000000000000000000000000000081526004018080602001828103825260258152602001806134496025913960400191505060405180910390fd5b600060055411610a4a576040517f08c379a00000000000000000000000000000000000000000000000000000000081526004018080602001828103825260278152602001806134226027913960400191505060405180910390fd5b60001515600760003373ffffffffffffffffffffffffffffffffffffffff1673ffffffffffffffffffffffffffffffffffffffff16815260200190815260200160002060030160009054906101000a900460ff16151514610af6576040517f08c379a000000000000000000000000000000000000000000000000000000000815260040180806020018281038252604b8152602001806134c5604b913960600191505060405180910390fd5b33600760003373ffffffffffffffffffffffffffffffffffffffff1673ffffffffffffffffffffffffffffffffffffffff16815260200190815260200160002060000160006101000a81548173ffffffffffffffffffffffffffffffffffffffff021916908373ffffffffffffffffffffffffffffffffffffffff16021790555034600760003373ffffffffffffffffffffffffffffffffffffffff1673ffffffffffffffffffffffffffffffffffffffff168152602001908152602001600020600201819055506001600760003373ffffffffffffffffffffffffffffffffffffffff1673ffffffffffffffffffffffffffffffffffffffff16815260200190815260200160002060030160006101000a81548160ff0219169083151502179055506000610c23611179565b905080600760003373ffffffffffffffffffffffffffffffffffffffff1673ffffffffffffffffffffffffffffffffffffffff16815260200190815260200160002060040181905550806008600083815260200190815260200160002060000181905550336008600083815260200190815260200160002060010160006101000a81548173ffffffffffffffffffffffffffffffffffffffff021916908373ffffffffffffffffffffffffffffffffffffffff1602179055507f7821596bea7f4fbe42a17e360450111dd7860df21aa431169cc74136170d9417600760003373ffffffffffffffffffffffffffffffffffffffff1673ffffffffffffffffffffffffffffffffffffffff16815260200190815260200160002060000160009054906101000a900473ffffffffffffffffffffffffffffffffffffffff16600760003373ffffffffffffffffffffffffffffffffffffffff1673ffffffffffffffffffffffffffffffffffffffff1681526020019081526020016000206002015483604051808473ffffffffffffffffffffffffffffffffffffffff1673ffffffffffffffffffffffffffffffffffffffff168152602001838152602001828152602001935050505060405180910390a15050565b6000600554905060006005819055503373ffffffffffffffffffffffffffffffffffffffff166108fc829081150290604051600060405180830381858888f19350505050158015610e4c573d6000803e3d6000fd5b5050565b662386f26fc1000080341015610eb1576040517f08c379a00000000000000000000000000000000000000000000000000000000081526004018080602001828103825260258152602001806134496025913960400191505060405180910390fd5b3460056000828254019250508190555050565b600073ffffffffffffffffffffffffffffffffffffffff163373ffffffffffffffffffffffffffffffffffffffff161415610efe57600080fd5b6000600760003373ffffffffffffffffffffffffffffffffffffffff1673ffffffffffffffffffffffffffffffffffffffff1681526020019081526020016000206001015411610f99576040517f08c379a000000000000000000000000000000000000000000000000000000000815260040180806020018281038252602681526020018061349f6026913960400191505060405180910390fd5b600760003373ffffffffffffffffffffffffffffffffffffffff1673ffffffffffffffffffffffffffffffffffffffff16815260200190815260200160002060030160009054906101000a900460ff161561103f576040517f08c379a000000000000000000000000000000000000000000000000000000000815260040180806020018281038252603181526020018061346e6031913960400191505060405180910390fd5b6000600760003373ffffffffffffffffffffffffffffffffffffffff1673ffffffffffffffffffffffffffffffffffffffff168152602001908152602001600020600101549050600760003373ffffffffffffffffffffffffffffffffffffffff1673ffffffffffffffffffffffffffffffffffffffff168152602001908152602001600020600080820160006101000a81549073ffffffffffffffffffffffffffffffffffffffff0219169055600182016000905560028201600090556003820160006101000a81549060ff02191690556003820160016101000a81549060ff0219169055600482016000905550503373ffffffffffffffffffffffffffffffffffffffff166108fc829081150290604051600060405180830381858888f19350505050158015611175573d6000803e3d6000fd5b5050565b60008060009050600062030d4090506000611196836001846113a4565b90507f45e222a035266a6d0150ebb8d9f07b10b77a2279f7b2f0cc6c3a2bc6f1d7abf93382604051808373ffffffffffffffffffffffffffffffffffffffff1673ffffffffffffffffffffffffffffffffffffffff1681526020018281526020019250505060405180910390a180935050505090565b60065481565b60006008600083815260200190815260200160002060010160009054906101000a900473ffffffffffffffffffffffffffffffffffffffff1690506006546008600084815260200190815260200160002060020181905550600160026006548161127857fe5b0614156112df576001600760008373ffffffffffffffffffffffffffffffffffffffff1673ffffffffffffffffffffffffffffffffffffffff16815260200190815260200160002060030160016101000a81548160ff02191690831515021790555061133b565b6000600760008373ffffffffffffffffffffffffffffffffffffffff1673ffffffffffffffffffffffffffffffffffffffff16815260200190815260200160002060030160016101000a81548160ff0219169083151502179055505b611345818361193f565b6000600760008373ffffffffffffffffffffffffffffffffffffffff1673ffffffffffffffffffffffffffffffffffffffff16815260200190815260200160002060030160006101000a81548160ff0219169083151502179055505050565b600080831180156113b6575060208311155b6113bf57600080fd5b600a84029350606060016040519080825280601f01601f1916602001820160405280156113fb5781602001600182028038833980820191505090505b5090508360f81b8160008151811061140f57fe5b60200101907effffffffffffffffffffffffffffffffffffffffffffffffffffffffffffff1916908160001a905350606060206040519080825280601f01601f1916602001820160405280156114745781602001600182028038833980820191505090505b509050606060206040519080825280601f01601f1916602001820160405280156114ad5781602001600182028038833980820191505090505b50905060006114ba611d3e565b905060208352424118600143034018602084015260208252806020830152606060206040519080825280601f01601f19166020018201604052801561150e5781602001600182028038833980820191505090505b509050886020820152606060086040519080825280601f01601f19166020018201604052801561154d5781602001600182028038833980820191505090505b509050611560826018600884600061205b565b5061156961333b565b604051806080016040528087815260200188815260200186815260200184815250905060006115ce6040518060400160405280600681526020017f72616e646f6d0000000000000000000000000000000000000000000000000000815250838c6120ba565b9050606060086040519080825280601f01601f1916602001820160405280156116065781602001600182028038833980820191505090505b50905060208401517f0100000000000000000000000000000000000000000000000000000000000000810460278301537e01000000000000000000000000000000000000000000000000000000000000810460268301537d010000000000000000000000000000000000000000000000000000000000810460258301537c0100000000000000000000000000000000000000000000000000000000810460248301537b01000000000000000000000000000000000000000000000000000000810460238301537a01000000000000000000000000000000000000000000000000000081046022830153790100000000000000000000000000000000000000000000000000810460218301537801000000000000000000000000000000000000000000000000810460208301535061192c82828560016004811061174557fe5b602002015160028760006004811061175957fe5b60200201516040518082805190602001908083835b60208310611791578051825260208201915060208101905060208303925061176e565b6001836020036101000a038019825116818451168082178552505050505050905001915050602060405180830381855afa1580156117d3573d6000803e3d6000fd5b5050506040513d60208110156117e857600080fd5b81019080805190602001909291905050508760026004811061180657fe5b60200201516040516020018085805190602001908083835b60208310611841578051825260208201915060208101905060208303925061181e565b6001836020036101000a03801982511681845116808217855250505050505090500184805190602001908083835b60208310611892578051825260208201915060208101905060208303925061186f565b6001836020036101000a03801982511681845116808217855250505050505090500183815260200182805190602001908083835b602083106118e957805182526020820191506020810190506020830392506118c6565b6001836020036101000a03801982511681845116808217855250505050505090500194505050505060405160208183030381529060405280519060200120612427565b8199505050505050505050509392505050565b600760008373ffffffffffffffffffffffffffffffffffffffff1673ffffffffffffffffffffffffffffffffffffffff16815260200190815260200160002060030160019054906101000a900460ff1615611b8e576002600760008473ffffffffffffffffffffffffffffffffffffffff1673ffffffffffffffffffffffffffffffffffffffff1681526020019081526020016000206002015402600760008473ffffffffffffffffffffffffffffffffffffffff1673ffffffffffffffffffffffffffffffffffffffff168152602001908152602001600020600101600082825401925050819055506002600760008473ffffffffffffffffffffffffffffffffffffffff1673ffffffffffffffffffffffffffffffffffffffff16815260200190815260200160002060020154026005600082825403925050819055507f5adb8b8b18b22a2f426d1e958fba099f027ac8b2f485b2fb43ce4913ddb9143c82600760008573ffffffffffffffffffffffffffffffffffffffff1673ffffffffffffffffffffffffffffffffffffffff16815260200190815260200160002060030160019054906101000a900460ff166002600760008773ffffffffffffffffffffffffffffffffffffffff1673ffffffffffffffffffffffffffffffffffffffff1681526020019081526020016000206002015402604051808473ffffffffffffffffffffffffffffffffffffffff1673ffffffffffffffffffffffffffffffffffffffff16815260200183151515158152602001828152602001935050505060405180910390a1611d3a565b600760008373ffffffffffffffffffffffffffffffffffffffff1673ffffffffffffffffffffffffffffffffffffffff16815260200190815260200160002060020154600760008473ffffffffffffffffffffffffffffffffffffffff1673ffffffffffffffffffffffffffffffffffffffff16815260200190815260200160002060010160008282540392505081905550600760008373ffffffffffffffffffffffffffffffffffffffff1673ffffffffffffffffffffffffffffffffffffffff168152602001908152602001600020600201546005600082825401925050819055507f5adb8b8b18b22a2f426d1e958fba099f027ac8b2f485b2fb43ce4913ddb9143c82600760008573ffffffffffffffffffffffffffffffffffffffff1673ffffffffffffffffffffffffffffffffffffffff16815260200190815260200160002060030160019054906101000a900460ff166000604051808473ffffffffffffffffffffffffffffffffffffffff1673ffffffffffffffffffffffffffffffffffffffff16815260200183151515158152602001828152602001935050505060405180910390a15b5050565b60008073ffffffffffffffffffffffffffffffffffffffff16600160009054906101000a900473ffffffffffffffffffffffffffffffffffffffff1673ffffffffffffffffffffffffffffffffffffffff161480611dc657506000611dc4600160009054906101000a900473ffffffffffffffffffffffffffffffffffffffff16612443565b145b15611dd757611dd5600061244e565b505b600160009054906101000a900473ffffffffffffffffffffffffffffffffffffffff1673ffffffffffffffffffffffffffffffffffffffff166338cc48316040518163ffffffff1660e01b8152600401602060405180830381600087803b158015611e4157600080fd5b505af1158015611e55573d6000803e3d6000fd5b505050506040513d6020811015611e6b57600080fd5b810190808051906020019092919050505073ffffffffffffffffffffffffffffffffffffffff166000809054906101000a900473ffffffffffffffffffffffffffffffffffffffff1673ffffffffffffffffffffffffffffffffffffffff1614611fb457600160009054906101000a900473ffffffffffffffffffffffffffffffffffffffff1673ffffffffffffffffffffffffffffffffffffffff166338cc48316040518163ffffffff1660e01b8152600401602060405180830381600087803b158015611f3957600080fd5b505af1158015611f4d573d6000803e3d6000fd5b505050506040513d6020811015611f6357600080fd5b81019080805190602001909291905050506000806101000a81548173ffffffffffffffffffffffffffffffffffffffff021916908373ffffffffffffffffffffffffffffffffffffffff1602179055505b6000809054906101000a900473ffffffffffffffffffffffffffffffffffffffff1673ffffffffffffffffffffffffffffffffffffffff1663abaa5f3e6040518163ffffffff1660e01b815260040160206040518083038186803b15801561201b57600080fd5b505afa15801561202f573d6000803e3d6000fd5b505050506040513d602081101561204557600080fd5b8101908080519060200190929190505050905090565b606060008285019050808451101561207257600080fd5b600086602001905060008460200190505b8688602001018210156120ab5781890151808288015250602082019150602081019050612083565b85935050505095945050505050565b60008073ffffffffffffffffffffffffffffffffffffffff16600160009054906101000a900473ffffffffffffffffffffffffffffffffffffffff1673ffffffffffffffffffffffffffffffffffffffff16148061214257506000612140600160009054906101000a900473ffffffffffffffffffffffffffffffffffffffff16612443565b145b1561215357612151600061244e565b505b600160009054906101000a900473ffffffffffffffffffffffffffffffffffffffff1673ffffffffffffffffffffffffffffffffffffffff166338cc48316040518163ffffffff1660e01b8152600401602060405180830381600087803b1580156121bd57600080fd5b505af11580156121d1573d6000803e3d6000fd5b505050506040513d60208110156121e757600080fd5b810190808051906020019092919050505073ffffffffffffffffffffffffffffffffffffffff166000809054906101000a900473ffffffffffffffffffffffffffffffffffffffff1673ffffffffffffffffffffffffffffffffffffffff161461233057600160009054906101000a900473ffffffffffffffffffffffffffffffffffffffff1673ffffffffffffffffffffffffffffffffffffffff166338cc48316040518163ffffffff1660e01b8152600401602060405180830381600087803b1580156122b557600080fd5b505af11580156122c9573d6000803e3d6000fd5b505050506040513d60208110156122df57600080fd5b81019080805190602001909291905050506000806101000a81548173ffffffffffffffffffffffffffffffffffffffff021916908373ffffffffffffffffffffffffffffffffffffffff1602179055505b6060600460405190808252806020026020018201604052801561236757816020015b60608152602001906001900390816123525790505b5090508360006004811061237757fe5b60200201518160008151811061238957fe5b6020026020010181905250836001600481106123a157fe5b6020020151816001815181106123b357fe5b6020026020010181905250836002600481106123cb57fe5b6020020151816002815181106123dd57fe5b6020026020010181905250836003600481106123f557fe5b60200201518160038151811061240757fe5b602002602001018190525061241d85828561245f565b9150509392505050565b8060036000848152602001908152602001600020819055505050565b6000813b9050919050565b60006124586129c1565b9050919050565b60008073ffffffffffffffffffffffffffffffffffffffff16600160009054906101000a900473ffffffffffffffffffffffffffffffffffffffff1673ffffffffffffffffffffffffffffffffffffffff1614806124e7575060006124e5600160009054906101000a900473ffffffffffffffffffffffffffffffffffffffff16612443565b145b156124f8576124f6600061244e565b505b600160009054906101000a900473ffffffffffffffffffffffffffffffffffffffff1673ffffffffffffffffffffffffffffffffffffffff166338cc48316040518163ffffffff1660e01b8152600401602060405180830381600087803b15801561256257600080fd5b505af1158015612576573d6000803e3d6000fd5b505050506040513d602081101561258c57600080fd5b810190808051906020019092919050505073ffffffffffffffffffffffffffffffffffffffff166000809054906101000a900473ffffffffffffffffffffffffffffffffffffffff1673ffffffffffffffffffffffffffffffffffffffff16146126d557600160009054906101000a900473ffffffffffffffffffffffffffffffffffffffff1673ffffffffffffffffffffffffffffffffffffffff166338cc48316040518163ffffffff1660e01b8152600401602060405180830381600087803b15801561265a57600080fd5b505af115801561266e573d6000803e3d6000fd5b505050506040513d602081101561268457600080fd5b81019080805190602001909291905050506000806101000a81548173ffffffffffffffffffffffffffffffffffffffff021916908373ffffffffffffffffffffffffffffffffffffffff1602179055505b60008060009054906101000a900473ffffffffffffffffffffffffffffffffffffffff1673ffffffffffffffffffffffffffffffffffffffff16632ef3accc86856040518363ffffffff1660e01b81526004018080602001838152602001828103825284818151815260200191508051906020019080838360005b8381101561276b578082015181840152602081019050612750565b50505050905090810190601f1680156127985780820380516001836020036101000a031916815260200191505b509350505050602060405180830381600087803b1580156127b857600080fd5b505af11580156127cc573d6000803e3d6000fd5b505050506040513d60208110156127e257600080fd5b81019080805190602001909291905050509050823a02670de0b6b3a764000001811115612815576000801b9150506129ba565b606061282085612f18565b90506000809054906101000a900473ffffffffffffffffffffffffffffffffffffffff1673ffffffffffffffffffffffffffffffffffffffff1663c55c1cb68360008985896040518663ffffffff1660e01b8152600401808581526020018060200180602001848152602001838103835286818151815260200191508051906020019080838360005b838110156128c45780820151818401526020810190506128a9565b50505050905090810190601f1680156128f15780820380516001836020036101000a031916815260200191505b50838103825285818151815260200191508051906020019080838360005b8381101561292a57808201518184015260208101905061290f565b50505050905090810190601f1680156129575780820380516001836020036101000a031916815260200191505b5096505050505050506020604051808303818588803b15801561297957600080fd5b505af115801561298d573d6000803e3d6000fd5b50505050506040513d60208110156129a457600080fd5b8101908080519060200190929190505050925050505b9392505050565b6000806129e1731d3b2638a7cc9f2cb3d298a3da7a90b67e5506ed612443565b1115612a8357731d3b2638a7cc9f2cb3d298a3da7a90b67e5506ed600160006101000a81548173ffffffffffffffffffffffffffffffffffffffff021916908373ffffffffffffffffffffffffffffffffffffffff160217905550612a7a6040518060400160405280600b81526020017f6574685f6d61696e6e6574000000000000000000000000000000000000000000815250612f98565b60019050612f15565b6000612aa273c03a2615d5efaf5f49f60b7bb6583eaec212fdf1612443565b1115612b445773c03a2615d5efaf5f49f60b7bb6583eaec212fdf1600160006101000a81548173ffffffffffffffffffffffffffffffffffffffff021916908373ffffffffffffffffffffffffffffffffffffffff160217905550612b3b6040518060400160405280600c81526020017f6574685f726f707374656e330000000000000000000000000000000000000000815250612f98565b60019050612f15565b6000612b6373b7a07bcf2ba2f2703b24c0691b5278999c59ac7e612443565b1115612c055773b7a07bcf2ba2f2703b24c0691b5278999c59ac7e600160006101000a81548173ffffffffffffffffffffffffffffffffffffffff021916908373ffffffffffffffffffffffffffffffffffffffff160217905550612bfc6040518060400160405280600981526020017f6574685f6b6f76616e0000000000000000000000000000000000000000000000815250612f98565b60019050612f15565b6000612c2473146500cfd35b22e4a392fe0adc06de1a1368ed48612443565b1115612cc65773146500cfd35b22e4a392fe0adc06de1a1368ed48600160006101000a81548173ffffffffffffffffffffffffffffffffffffffff021916908373ffffffffffffffffffffffffffffffffffffffff160217905550612cbd6040518060400160405280600b81526020017f6574685f72696e6b656279000000000000000000000000000000000000000000815250612f98565b60019050612f15565b6000612ce573a2998efd205fb9d4b4963afb70778d6354ad3a41612443565b1115612d875773a2998efd205fb9d4b4963afb70778d6354ad3a41600160006101000a81548173ffffffffffffffffffffffffffffffffffffffff021916908373ffffffffffffffffffffffffffffffffffffffff160217905550612d7e6040518060400160405280600a81526020017f6574685f676f65726c6900000000000000000000000000000000000000000000815250612f98565b60019050612f15565b6000612da6736f485c8bf6fc43ea212e93bbf8ce046c7f1cb475612443565b1115612e0a57736f485c8bf6fc43ea212e93bbf8ce046c7f1cb475600160006101000a81548173ffffffffffffffffffffffffffffffffffffffff021916908373ffffffffffffffffffffffffffffffffffffffff16021790555060019050612f15565b6000612e297320e12a1f859b3feae5fb2a0a32c18f5a65555bbf612443565b1115612e8d577320e12a1f859b3feae5fb2a0a32c18f5a65555bbf600160006101000a81548173ffffffffffffffffffffffffffffffffffffffff021916908373ffffffffffffffffffffffffffffffffffffffff16021790555060019050612f15565b6000612eac7351efaf4c8b3c9afbd5ab9f4bbc82784ab6ef8faa612443565b1115612f10577351efaf4c8b3c9afbd5ab9f4bbc82784ab6ef8faa600160006101000a81548173ffffffffffffffffffffffffffffffffffffffff021916908373ffffffffffffffffffffffffffffffffffffffff16021790555060019050612f15565b600090505b90565b6060612f22612fb2565b612f2a613362565b612f3681610400612fbe565b612f3f81613008565b60008090505b8351811015612f8157612f74848281518110612f5d57fe5b60200260200101518361301690919063ffffffff16565b8080600101915050612f45565b50612f8b8161303b565b8060000151915050919050565b8060029080519060200190612fae92919061337c565b5050565b60405180590338823950565b6000819050600060208281612fcf57fe5b0614612fe85760208181612fdf57fe5b06602003810190505b808360200181815250506040518084526000815281810160405250505050565b613013816004613049565b50565b613023826002835161306a565b61303681836131aa90919063ffffffff16565b505050565b613046816007613049565b50565b613066601f60058360ff16901b178361325590919063ffffffff16565b5050565b60178111613096576130918160058460ff16901b60ff16178461325590919063ffffffff16565b6131a5565b60ff81116130d7576130bb601860058460ff16901b178461325590919063ffffffff16565b6130d1816001856132959092919063ffffffff16565b506131a4565b61ffff8111613119576130fd601960058460ff16901b178461325590919063ffffffff16565b613113816002856132959092919063ffffffff16565b506131a3565b63ffffffff811161315d57613141601a60058460ff16901b178461325590919063ffffffff16565b613157816004856132959092919063ffffffff16565b506131a2565b67ffffffffffffffff81116131a157613189601b60058460ff16901b178461325590919063ffffffff16565b61319f816008856132959092919063ffffffff16565b505b5b5b5b5b505050565b6131b2613362565b826020015183600001515183510111156131e2576131e18360026131db866020015186516132fc565b02613318565b5b60008060008451905085518051602081830101945086518101825260208701935050505b602081106132295781518352602083019250602082019150602081039050613206565b60006001826020036101000a039050801983511681855116818117865250508694505050505092915050565b8160200151600183600001515101111561327b5761327a826002846020015102613318565b5b815180516020818301018381536001820183525050505050565b61329d613362565b8360200151846000015151830111156132cb576132ca8460026132c48760200151866132fc565b02613318565b5b60006001836101000a0390508451805184818301018684198251161781528582018352505050849150509392505050565b60008183111561330e57829050613312565b8190505b92915050565b60608260000151905061332b8383612fbe565b61333583826131aa565b50505050565b60405180608001604052806004905b606081526020019060019003908161334a5790505090565b604051806040016040528060608152602001600081525090565b828054600181600116156101000203166002900490600052602060002090601f016020900481019282601f106133bd57805160ff19168380011785556133eb565b828001600101855582156133eb579182015b828111156133ea5782518255916020019190600101906133cf565b5b5090506133f891906133fc565b5090565b61341e91905b8082111561341a576000816000905550600101613402565b5090565b9056fe43616e6e6f7420706c61792e20436f6e74726163742062616c616e636520697320656d7074792e4d696e696d756d20626574206f72206465706f73697420697320302e30312065746865722143616e6e6f74207769746864726177207768696c652077616974696e6720666f72206f7261636c6520726571756573742e54686973206164647265737320686173206e6f2066756e647320746f2077697468647261772e43616e6e6f7420706c61792e205468697320706c61796572206164647265737320697320616c726561647920706c6179696e6720616e642077616974696e67206f6e20726571756573742ea265627a7a72315820015e09892e779c946b71ca396402aa7464bfd3edd8a900c506d46d17f752c1a464736f6c63430005110032436f6e7472616374206e65656473206d696e696d756d20657468657220746f20696e697469616c697a6520636f6e74726163742062616c616e63652e",
  "source": "pragma solidity >= 0.5.0 < 0.6.0;\n\n//import \"github.com/provable-things/ethereum-api/provableAPI_0.5.sol\";\nimport \"./provableAPI_0.5.sol\";\n\ncontract Betting is usingProvable {\n\n    uint public contractBalance;\n\n    //for generating random number using provable\n    uint256 constant NUM_RANDOM_BYTES_REQUESTED = 1;\n    uint256 public latestNumber;\n\n    struct player {\n        address playerAddress;\n        uint balance;\n        uint bet;\n        bool waiting;           //true if player waiting for oracle request\n        bool win;               //true if last bet won\n        bytes32 queryId;\n    }\n\n    struct query {\n        bytes32 id;\n        address playerAddress;\n        uint256 random;\n    }\n\n    mapping(address => player) private players;\n    mapping(bytes32 => query) private queries;\n\n    event LogGeneratedRandomNumber(bytes32 requestId, uint256 randomNumber);\n    event LogGameState(address playerAddress, uint playerBalance, bytes32 queryId, uint256 random, uint contractBalance);\n    event LogPlay(address playerAddress, uint bet, bytes32 queryId);\n    event LogRandomRequest(address playerAddress, bytes32 queryId);\n    event LogRandomRequestRecieved(address playerAddress, bytes32 queryId, uint random);\n    event LogPlayEnd(address playerAddress, bool win, uint256 winAmount);\n\n    /*\n     * MODIFIERS\n     ************************************************************************************************\n     */\n    modifier initCosts(uint initCost){\n        require(msg.value >= initCost, \"Contract needs minimum ether to initialize contract balance.\");\n        _;\n    }\n\n    modifier costs(uint cost){\n        require(msg.value >= cost, \"Minimum bet or deposit is 0.01 ether!\");\n        _;\n    }\n\n    modifier ready() {\n        require(contractBalance > 0, \"Cannot play. Contract balance is empty.\");\n        require(players[msg.sender].waiting == false, \"Cannot play. This player address is already playing and waiting on request.\");\n        _;\n    }\n\n    modifier withdrawable() {\n        require(msg.sender != address(0));\n        require(players[msg.sender].balance > 0, \"This address has no funds to withdraw.\");\n        require(!players[msg.sender].waiting, \"Cannot withdraw while waiting for oracle request.\");\n        _;\n    }\n\n    /***********************************************************************************************/\n\n    //constructor takes initial 0.05 ether (50 finney) from default player\n    constructor() public payable initCosts(0.05 ether) {\n\n        contractBalance += msg.value;\n\n        players[msg.sender].playerAddress = msg.sender;\n        players[msg.sender].balance = 0;\n        players[msg.sender].bet = 0;\n        players[msg.sender].waiting = false;\n        players[msg.sender].win = false;\n        players[msg.sender].queryId = 0;\n\n        emit LogGameState(players[msg.sender].playerAddress, players[msg.sender].balance, 0, 0, contractBalance);\n    }\n\n    function play() public payable costs(0.01 ether) ready {\n        players[msg.sender].playerAddress = msg.sender;\n        players[msg.sender].bet = msg.value;\n        players[msg.sender].waiting = true;\n\n        bytes32 newQueryId = getRandomNumber();\n\n        players[msg.sender].queryId = newQueryId;\n\n        queries[newQueryId].id = newQueryId;\n        queries[newQueryId].playerAddress = msg.sender;\n\n        emit LogPlay(players[msg.sender].playerAddress, players[msg.sender].bet, newQueryId);\n    }\n\n    function getRandomNumber() payable public returns (bytes32 queryId) {\n        uint QUERY_EXECUTION_DELAY = 0;\n        uint GAS_FOR_CALLBACK = 200000;\n        bytes32 query_id = provable_newRandomDSQuery(QUERY_EXECUTION_DELAY, NUM_RANDOM_BYTES_REQUESTED, GAS_FOR_CALLBACK);\n        \n        emit LogRandomRequest(msg.sender, query_id);\n\n        return query_id;\n    }\n\n    function __callback(bytes32 _queryId, string memory _result, bytes memory _proof) public {\n        uint256 randomNumber = uint256(keccak256(abi.encodePacked(_result)));\n        latestNumber = randomNumber;\n        updateGame(_queryId);\n        \n        emit LogRandomRequestRecieved(queries[_queryId].playerAddress, _queryId, latestNumber);\n    }\n\n    function updateGame(bytes32 _queryId) internal {\n        address playerAddress = queries[_queryId].playerAddress;\n\n        queries[_queryId].random = latestNumber;\n\n        if(latestNumber % 2 == 1) {\n            players[playerAddress].win = true;\n        } else {\n            players[playerAddress].win = false;\n        }\n\n        updateBalances(playerAddress, _queryId);\n\n        players[playerAddress].waiting = false;\n\n        //delete(requests[_queryId]);\n    }\n\n    function updateBalances(address playerAddress, bytes32 _queryId) internal {\n        if(players[playerAddress].win) {\n            players[playerAddress].balance += players[playerAddress].bet * 2;\n            contractBalance -= players[playerAddress].bet * 2;\n            emit LogPlayEnd(playerAddress, players[playerAddress].win, players[playerAddress].bet*2);\n        } else {\n            players[playerAddress].balance -= players[playerAddress].bet;\n            contractBalance += players[playerAddress].bet;\n            emit LogPlayEnd(playerAddress, players[playerAddress].win, 0);\n        }\n    }\n\n    function withdrawPlayerBalance() public withdrawable {\n        uint amount = players[msg.sender].balance;\n        delete(players[msg.sender]);\n        msg.sender.transfer(amount);\n    }\n\n    function withdrawContractBalance() public {\n        uint256 amount = contractBalance;\n        contractBalance = 0;\n        msg.sender.transfer(amount);\n    }\n\n    function deposit() public payable costs(0.01 ether){\n        contractBalance += msg.value;\n    }\n\n    function getPlayer() public view returns (address playerAddress, uint balance, uint bet, bool waiting, bool win, bytes32 queryId, uint256 random) {\n\n        return (players[msg.sender].playerAddress,\n                players[msg.sender].balance,\n                players[msg.sender].bet,\n                players[msg.sender].waiting,\n                players[msg.sender].win,\n                players[msg.sender].queryId,\n                queries[players[msg.sender].queryId].random\n                );\n    }\n\n    function getPlayerBalance() public view returns (uint) {\n        return players[msg.sender].balance;\n    }\n\n    function getContractBalance() public view returns (uint){\n        return contractBalance;\n    }\n\n    function getContractAddress() public view returns (address) {\n        return address(this);\n    }\n\n    function getSenderAddress() public view returns (address) {\n        return msg.sender;\n    }\n}\n",
  "sourcePath": "/Users/bigboy/Dropbox/Marvin/Ivan On Tech/2 Smart Contract Programming/Betting Phase 1.2 Provable/Betting Contract/contracts/Betting.sol",
  "compiler": {
    "name": "solc",
    "version": "0.5.17+commit.d19bba13.Emscripten.clang"
  },
  "schemaVersion": "3.3.3",
  "updatedAt": "2021-04-25T01:53:16.572Z",
  "networkType": "ethereum",
  "devdoc": {
    "methods": {
      "__callback(bytes32,string)": {
        "details": "The following `__callback` functions are just placeholders ideally     meant to be defined in child contract when proofs are used.     The function bodies simply silence compiler warnings."
      }
    }
  },
  "userdoc": {
    "methods": {
      "constructor": "********************************************************************************************"
    }
  }
}